:100000000C945D000C9485000C9485000C94850084
:100010000C9485000C9485000C9485000C9485004C
:100020000C9485000C9485000C9485000C9485003C
:100030000C9485000C9485000C9485000C9485002C
:100040000C9443020C9485000C94B3020C948D0222
:100050000C9485000C9485000C9485000C9485000C
:100060000C9485000C94850000000008000201003B
:100070000003040700000000000000000000000072
:10008000250028002B0000000000240027002A0083
:10009000040404040404040402020202020203032E
:1000A0000303030301020408102040800102040836
:1000B0001020010204081020110411241FBECFEFEC
:1000C000D8E0DEBFCDBF11E0A0E0B1E0E8EBF8E0A2
:1000D00002C005900D92A037B107D9F722E0A0E742
:1000E000B1E001C01D92A931B207E1F710E0CDE502
:1000F000D0E004C02197FE010E945404CC35D10702
:10010000C9F70E94E5020C945A040C94000090E098
:10011000FC01EC55FF4F249180579F4FFC018491C7
:10012000882399F090E0880F991FFC01EA57FF4F50
:10013000A591B491FC01E458FF4F859194918FB73C
:10014000F894EC91E22BEC938FBF089590E0FC01C2
:10015000E859FF4F2491FC01EC55FF4F3491FC010D
:10016000E057FF4FE491EE23C9F0222339F023300A
:1001700001F1A8F4213019F1223029F1F0E0EE0F5D
:10018000FF1FE458FF4FA591B4918FB7F894EC91FD
:10019000611126C030953E233C938FBF08952730D0
:1001A000A9F02830C9F0243049F7809180008F7D74
:1001B00003C0809180008F7780938000DFCF84B56B
:1001C0008F7784BDDBCF84B58F7DFBCF8091B0006E
:1001D0008F778093B000D2CF8091B0008F7DF9CF20
:1001E0003E2BDACF3FB7F894809178019091790156
:1001F000A0917A01B0917B0126B5A89B05C02F3F45
:1002000019F00196A11DB11D3FBFBA2FA92F982F3C
:100210008827BC01CD01620F711D811D911D42E037
:10022000660F771F881F991F4A95D1F70895AF92DF
:10023000BF92CF92DF92EF92FF920F931F93CF93D3
:10024000DF936C017B018B01040F151FEB015E0135
:10025000AE18BF08C017D10759F06991D601ED91CA
:10026000FC910190F081E02DC6010995892B79F769
:10027000C501DF91CF911F910F91FF90EF90DF901B
:10028000CF90BF90AF900895FC01538D448D252FE2
:1002900030E0842F90E0821B930B541710F0CF9620
:1002A000089501970895FC01918D828D981761F052
:1002B000A28DAE0FBF2FB11D5D968C91928D9F5F69
:1002C0009F73928F90E008958FEF9FEF0895FC0148
:1002D000918D828D981731F0828DE80FF11D858DFB
:1002E00090E008958FEF9FEF0895FC01918D228D8E
:1002F000892F90E0805C9F4F821B91098F73992713
:1003000008958CE791E00E94750121E0892B09F4A2
:1003100020E0822F089580E090E0892B29F00E9450
:10032000810181110C9400000895FC01A48DA80F97
:10033000B92FB11DA35ABF4F2C91848D90E0019627
:100340008F739927848FA689B7892C93A089B18947
:100350008C91837080648C93938D848D981306C0E8
:100360000288F389E02D80818F7D80830895EF924C
:10037000FF920F931F93CF93DF93EC0181E0888F5F
:100380009B8D8C8D98131AC0E889F989808185FF2F
:1003900015C09FB7F894EE89FF896083E889F989D1
:1003A00080818370806480839FBF81E090E0DF91D3
:1003B000CF911F910F91FF90EF900895F62E0B8D26
:1003C00010E00F5F1F4F0F731127E02E8C8D8E11E1
:1003D0000CC00FB607FCFACFE889F989808185FF48
:1003E000F5CFCE010E949501F1CFEB8DEC0FFD2FE3
:1003F000F11DE35AFF4FF0829FB7F8940B8FEA8903
:10040000FB8980818062CFCFCF93DF93EC01888D11
:100410008823B9F0AA89BB89E889F9898C9185FD7F
:1004200003C0808186FD0DC00FB607FCF7CF8C910D
:1004300085FFF2CF808185FFEDCFCE010E9495012F
:10044000E9CFDF91CF91089542E050E062E171E0A1
:100450008CE791E00C941701CF93DF93FC0101909E
:100460000020E9F73197AF01481B590BBC018CE71D
:1004700091E00E941701EC010E9424028C0F9D1F45
:10048000DF91CF9108951F920F920FB60F92112412
:100490002F933F938F939F93AF93BF93809174015A
:1004A00090917501A0917601B0917701309173011F
:1004B00023E0230F2D3758F50196A11DB11D209380
:1004C00073018093740190937501A0937601B093AA
:1004D00077018091780190917901A0917A01B09192
:1004E0007B010196A11DB11D809378019093790144
:1004F000A0937A01B0937B01BF91AF919F918F91AF
:100500003F912F910F900FBE0F901F90189526E8E6
:10051000230F0296A11DB11DD2CF1F920F920FB6CD
:100520000F9211242F933F934F935F936F937F9379
:100530008F939F93AF93BF93EF93FF938CE791E0DB
:100540000E949501FF91EF91BF91AF919F918F9183
:100550007F916F915F914F913F912F910F900FBEBF
:100560000F901F9018951F920F920FB60F921124A3
:100570002F938F939F93EF93FF93E0918C01F091D2
:100580008D018081E0919201F091930182FD1BC069
:100590009081809195018F5F8F73209196018217D2
:1005A00041F0E0919501F0E0E458FE4F958F809383
:1005B0009501FF91EF919F918F912F910F900FBE19
:1005C0000F901F9018958081F4CF789484B5826045
:1005D00084BD84B5816084BD85B5826085BD85B5E7
:1005E000816085BD80916E00816080936E00109265
:1005F00081008091810082608093810080918100E0
:100600008160809381008091800081608093800070
:100610008091B10084608093B1008091B0008160CE
:100620008093B00080917A00846080937A008091FA
:100630007A00826080937A0080917A008160809352
:100640007A0080917A00806880937A001092C100CD
:100650008DE00E9487008CE00E948700E0918C0171
:10066000F0918D0182E08083E0918801F091890111
:100670001082E0918A01F0918B018FEC80831092BF
:100680009401E0919001F091910186E08083E091E6
:100690008E01F0918F01808180618083E0918E01D5
:1006A000F0918F01808188608083E0918E01F091CC
:1006B0008F01808180688083E0918E01F0918F01AD
:1006C00080818F7D80830E94240285E191E00E94D9
:1006D0002C021092720110927101C0917101D0919F
:1006E0007201C11524E0D20774F4CE010E943E04C9
:1006F000682F8CE791E00E94B7012196D093720198
:10070000C0937101EACF0E9424020E942402109239
:10071000720110927101CFE3D1E08091710190914B
:100720007201811524E092076CF46C2F0E9446043C
:100730008091710190917201019690937201809362
:100740007101EBCF81E491E00E942C020E9424020F
:100750008AE591E00E942C020E942402109272010C
:1007600010927101E0907101F0907201E11484E047
:10077000F8065CF0C0E0D0E02097F1F30E94810120
:100780008823D1F30E940000F7CF8CE791E00E940C
:100790007501892B39F38CE791E00E945301C82F32
:1007A00080937001682F8CE791E00E94B7016C2F55
:1007B000C7010E94460480917101909172010196D7
:1007C000909372018093710161E08DE00E94A60018
:1007D0000E94F2004B015C0182E3C82ED12CE12C77
:1007E000F12C0E94F200681979098A099B09683E78
:1007F000734081059105A8F321E0C21AD108E108F0
:10080000F10888EE880E83E0981EA11CB11CC1146B
:10081000D104E104F10429F760E08DE00E94A60014
:10082000A1CFECE7F1E01382128288EE93E0A0E022
:10083000B0E084839583A683B78384E091E09183BD
:10084000808385EC90E09587848784EC90E097879F
:10085000868780EC90E0918B808B81EC90E0938B8D
:10086000828B82EC90E0958B848B86EC90E0978B6A
:10087000868B118E128E138E148E0895F999FECFE9
:1008800092BD81BDF89A992780B50895262FF999D0
:10089000FECF1FBA92BD81BD20BD0FB6F894FA9A63
:1008A000F99A0FBE01960895EE0FFF1F0590F4917F
:0808B000E02D0994F894FFCF3C
:1008B80000000000B701170144010402750153014B
:1008C80067010D0A005468652070726576696F7556
:1008D80073207465787420736176656420696E206E
:1008E80074686520454550524F4D207761733A2012
:1008F80000454550524F4D206D656D6F72792069E6
:1009080073204572617365642E005772697465209F
:10091800796F75206E65772074657874203A0000C9
:00000001FF
